:100000000C9462000C948A000C948A000C948A0070
:100010000C948A000C948A000C948A000C948A0038
:100020000C948A000C948A000C948A000C948A0028
:100030000C948A000C948A000C948A000C948A0018
:100040000C94D7020C948A000C9447030C9421035F
:100050000C948A000C948A000C948A000C948A00F8
:100060000C948A000C948A000000000024002700F1
:100070002A000000000023002600290000000000E4
:10008000250028002B0004040404040404040202D4
:100090000202020203030303030301020408102007
:1000A0004080010204081020010204081020000012
:1000B0000008000201000003040700000000000027
:1000C0000000E00411241FBECFEFD8E0DEBFCDBF9B
:1000D00011E0A0E0B1E0EEE6FAE002C005900D927A
:1000E000A23FB107D9F722E0A2EFB1E001C01D9213
:1000F000AF39B207E1F710E0C2E6D0E004C02197C3
:10010000FE010E942F05C136D107C9F70E9479036D
:100110000C9435050C9400009B01AC01E091120297
:10012000F091130282E08083211581EE38074105AA
:100130005105E9F160E079E08DE390E00E940D0562
:100140002150310941095109569547953795279511
:10015000E0910E02F0910F021082E0911002F091F6
:100160001102208310921A02E0911602F0911702F8
:1001700086E08083E0911402F09115028081806115
:100180008083E0911402F091150280818860808361
:10019000E0911402F0911502808180688083E091E3
:1001A0001402F091150280818F7D80830895E09183
:1001B0001202F0911302108220E1CACF833081F045
:1001C00028F4813099F08230A9F008958730A9F0A1
:1001D0008830C9F08430B1F4809180008F7D03C0F5
:1001E000809180008F7780938000089584B58F7709
:1001F00084BD089584B58F7DFBCF8091B0008F774B
:100200008093B00008958091B0008F7DF9CF1F9347
:10021000CF93DF93EBEBF0E09491E7EAF0E0D49139
:10022000E3E9F0E0C491CC23B9F0182F992319F039
:10023000892F0E94DE00EC2FF0E0EE0FFF1FE45844
:10024000FF4FA591B4918FB7F894EC91111108C0AC
:10025000D095DE23DC938FBFDF91CF911F9108955E
:10026000DE2BF8CFCF93DF93E0EBF0E08491ECE965
:10027000F0E0D491E8E8F0E0C491CC23A1F0811142
:100280000E94DE00EC2FF0E0EE0FFF1FEE58FF4F54
:10029000A591B491EC91ED2381E090E009F480E028
:1002A000DF91CF91089580E090E0FACF3FB7F894C6
:1002B0008091FE019091FF01A0910002B091010296
:1002C00026B5A89B05C02F3F19F00196A11DB11DB1
:1002D0003FBFBA2FA92F982F8827BC01CD01620FED
:1002E000711D811D911D42E0660F771F881F991FA8
:1002F0004A95D1F708958F929F92AF92BF92CF9275
:10030000DF92EF92FF924B015C010E9456016B015C
:100310007C010E9456016C197D098E099F09683E77
:10032000734081059105A8F321E0821A9108A10884
:10033000B10888EEC80E83E0D81EE11CF11C8114C0
:100340009104A104B10429F7FF90EF90DF90CF90C2
:10035000BF90AF909F908F900895AF92BF92CF9231
:10036000DF92EF92FF920F931F93CF93DF936C0175
:100370007B018B01040F151FEB015E01AE18BF0856
:10038000C017D10759F06991D601ED91FC91019008
:10039000F081E02DC6010995892B79F7C501DF9120
:1003A000CF911F910F91FF90EF90DF90CF90BF9072
:1003B000AF900895FC01538D448D252F30E0842F9C
:1003C00090E0821B930B541710F0CF96089501977D
:1003D0000895FC01918D828D981761F0A28DAE0F6A
:1003E000BF2FB11D5D968C91928D9F5F9F73928FF1
:1003F00090E008958FEF9FEF0895FC01918D828D1D
:10040000981731F0828DE80FF11D858D90E00895E9
:100410008FEF9FEF0895FC01918D228D892F90E041
:10042000805C9F4F821B91098F739927089582E00A
:1004300092E00E940B0221E0892B09F420E0822F38
:10044000089580E090E0892B29F00E941702811125
:100450000C9400000895FC01A48DA80FB92FB11DC4
:10046000A35ABF4F2C91848D90E001968F739927EA
:10047000848FA689B7892C93A089B1898C918370C8
:1004800080648C93938D848D981306C00288F389C1
:10049000E02D80818F7D80830895EF92FF920F93EE
:1004A0001F93CF93DF93EC0181E0888F9B8D8C8D20
:1004B00098131AC0E889F989808185FF15C09FB714
:1004C000F894EE89FF896083E889F98980818370D7
:1004D000806480839FBF81E090E0DF91CF911F9186
:1004E0000F91FF90EF900895F62E0B8D10E00F5FA7
:1004F0001F4F0F731127E02E8C8D8E110CC00FB67D
:1005000007FCFACFE889F989808185FFF5CFCE0114
:100510000E942B02F1CFEB8DEC0FFD2FF11DE35A62
:10052000FF4FF0829FB7F8940B8FEA89FB89808197
:100530008062CFCFCF93DF93EC01888D8823B9F011
:10054000AA89BB89E889F9898C9185FD03C08081DE
:1005500086FD0DC00FB607FCF7CF8C9185FFF2CF5B
:10056000808185FFEDCFCE010E942B02E9CFDF9184
:10057000CF910895CF93DF93FC0101900020E9F71C
:100580003197AF01481B590BBC0182E092E00E94F9
:10059000AD01EC0142E050E063E171E082E092E005
:1005A0000E94AD018C0F9D1FDF91CF9108951F9286
:1005B0000F920FB60F9211242F933F938F939F9317
:1005C000AF93BF938091FA019091FB01A091FC0140
:1005D000B091FD013091F90123E0230F2D3758F53B
:1005E0000196A11DB11D2093F9018093FA0190930A
:1005F000FB01A093FC01B093FD018091FE0190915D
:10060000FF01A0910002B09101020196A11DB11D50
:100610008093FE019093FF01A0930002B09301022A
:10062000BF91AF919F918F913F912F910F900FBEEE
:100630000F901F90189526E8230F0296A11DB11D5B
:10064000D2CF1F920F920FB60F9211242F933F9388
:100650004F935F936F937F938F939F93AF93BF93CA
:10066000EF93FF9382E092E00E942B02FF91EF91C3
:10067000BF91AF919F918F917F916F915F914F91BA
:100680003F912F910F900FBE0F901F9018951F92C2
:100690000F920FB60F9211242F938F939F93EF9386
:1006A000FF93E0911202F09113028081E091180211
:1006B000F091190282FD1BC0908180911B028F5F17
:1006C0008F7320911C02821741F0E0911B02F0E031
:1006D000EE5FFD4F958F80931B02FF91EF919F91ED
:1006E0008F912F910F900FBE0F901F9018958081C2
:1006F000F4CF789484B5826084BD84B5816084BD74
:1007000085B5826085BD85B5816085BD80916E00AF
:10071000816080936E0010928100809181008260E0
:10072000809381008091810081608093810080911D
:1007300080008160809380008091B100846080930C
:10074000B1008091B00081608093B00080917A0008
:10075000846080937A0080917A00826080937A002E
:1007600080917A00816080937A0080917A0080681D
:1007700080937A001092C100ECE9F0E02491E8E85F
:10078000F0E084918823C1F090E0880F991FFC016C
:10079000E859FF4FC591D491FC01E458FF4FA59152
:1007A000B4919FB7F8943881822F809583238883F2
:1007B000EC91E22BEC939FBFE7EAF0E02491E3E9B0
:1007C000F0E08491882399F090E0880F991FFC0154
:1007D000E859FF4FA591B491FC01E458FF4F859172
:1007E00094918FB7F894EC91E22BEC938FBF60E873
:1007F00075E280E090E00E948C0086E191E00E942A
:10080000BA0200E010E0EE24E3940E943201EC0111
:10081000FF24F394892B09F4F12C209709F04BC0A5
:1008200080910001882399F02FB7F8948091FA0104
:100830009091FB01A091FC01B091FD012FBF80932D
:10084000F5019093F601A093F701B093F8012FB74B
:10085000F8948091FA019091FB01A091FC01B09174
:10086000FD012FBF4091F5015091F6016091F70114
:100870007091F801841B950BA60BB70B893B9B402D
:10088000A105B105C0F08091F401811162C0E09230
:10089000F4018AE491E00E94BA028BE691E00E94A2
:1008A000BA020E943201892BE1F36CE271E080E030
:1008B00090E00E947B018091F401882309F469C0D3
:1008C00081E00E94070164E670E080E090E00E9411
:1008D0007B0180E00E94070164E670E080E090E028
:1008E0000E947B01CD2B39F580910001882319F1FD
:1008F0008091F2019091F3010196823091050CF004
:1009000040C09093F3018093F2018091F2019091A5
:10091000F301892BD9F58BE691E00E94BA0260E8D9
:1009200075E280E090E00E948C006CE271E080E073
:1009300090E00E947B01F09200010115110509F47D
:1009400064CF0E941702882309F45FCF0E94000041
:100950005CCF8091F2019091F301892B69F460E8FA
:1009600075E280E090E00E948C0084E891E00E94B3
:10097000BA021092F40195CF60E072EC81E090E051
:10098000F2CF1092F3011092F201BFCF8CEB91E005
:10099000C4CF81E00E94070164EF71E080E090E045
:1009A0000E947B0180E00E94070164EF71E080E01B
:1009B00090E00E947B0187ED91E00E94BA02BBCFDC
:1009C000E2E0F2E01382128288EE93E0A0E0B0E071
:1009D00084839583A683B78385E091E091838083A8
:1009E00085EC90E09587848784EC90E097878687F4
:1009F00080EC90E0918B808B81EC90E0938B828BEC
:100A000082EC90E0958B848B86EC90E0978B868BC4
:100A1000118E128E138E148E0895A1E21A2EAA1B27
:100A2000BB1BFD010DC0AA1FBB1FEE1FFF1FA2179E
:100A3000B307E407F50720F0A21BB30BE40BF50B9B
:100A4000661F771F881F991F1A9469F76095709524
:100A5000809590959B01AC01BD01CF010895EE0FEB
:0E0A6000FF1F0590F491E02D0994F894FFCF4C
:100A6E0001000000004D02AD01DA019A020B02E90D
:100A7E0001FD010D0A0048652074686F6E67206BDA
:100A8E00686F6920646F6E67206F206368652064ED
:100A9E006F2062696E68207468756F6E67202839E2
:100AAE0036303020627073292E003E3E3E20566155
:100ABE006F2063686520646F206361752068696EBE
:100ACE00682055415254203C3C3C004461206368F0
:100ADE006F6E20746F6320646F2039363030206261
:100AEE0070732E004361752068696E6820686F61AF
:100AFE006E207461742C2074726F2076652063688A
:100B0E006520646F20686F617420646F6E67206269
:100B1E00696E68207468756F6E672E00446120637D
:100B2E00686F6E20746F6320646F20313135323000
:100B3E0030206270732E0048652074686F6E6720D7
:100B4E0064616E6720686F617420646F6E672E2E0D
:020B5E002E0067
:00000001FF
